:020000040800F2
:10000000D8070020A92400082107000823070008BA
:10001000270700082B0700082F0700080000000032
:10002000000000000000000000000000330700088E
:1000300035070008000000003707000839070008EE
:10004000C3240008C3240008C3240008C3240008F4
:10005000C3240008C3240008C3240008C3240008E4
:10006000C3240008C3240008C3240008C3240008D4
:10007000C3240008C3240008C3240008C3240008C4
:10008000C3240008C3240008C3240008C3240008B4
:10009000C3240008C3240008C3240008C3240008A4
:1000A000C3240008C3240008C3240008C324000894
:1000B000410700085B07000875070008C324000813
:1000C000C3240008C3240008C3240008C324000874
:1000D000C3240008A5070008C3240008C32400089F
:1000E000C3240008C3240008C3240008C324000854
:1000F000C3240008C3240008C3240008C324000844
:10010000C3240008C32400088F070008C324000884
:10011000C3240008C3240008C3240008C324000823
:10012000C3240008C3240008C3240008C324000813
:10013000DFF80CD004F026FE00480047A7020008B4
:10014000D807002070B588B07C480068401C7B4907
:100150000860084600686421B0FBF1F201FB120060
:10016000002835D17649086074490860002426E0EB
:100170007448008804F0B9FC06464FF08B4104F047
:10018000C1FA054604F0C3FCCDE906016EA00CC817
:10019000069804F0A6FBCDE904016948006804F064
:1001A000B6FCCDE90201DDE9042304F0EBFACDE968
:1001B000000104F0E5FC62490860601CC4B20A2C2E
:1001C000D6DB63495E48006804F09CFA6149086028
:1001D00008B070BD70B588B000205949086000248F
:1001E00026E05848008804F080FC06464FF08B411A
:1001F00004F088FA054604F08AFCCDE9060152A015
:100200000CC8069804F06DFBCDE904014C48006869
:1002100004F07DFCCDE90201DDE9042304F0B2FA2B
:10022000CDE9000104F0ACFC45490860601C84B2D3
:100230000A2CD6DB46494248006804F063FA454977
:10024000086008B070BD70B50024002500BF09E04B
:1002500002F0EBF840480168284604F0FBF9054637
:10026000601CC4B20A2CF3DB3949284604F04AFA70
:100270003949086039493848006804F0A1FC0ED2B9
:1002800042203749887040F6B83000F01AFA44200E
:100290003349887040F6B83000F013FA02E041208C
:1002A0002F49887070BD1CB500F04AFC00F094FB2B
:1002B00000F0BCF900F052FC00F072F800F0B1F868
:1002C00002F06CF801E000F0A7FB0121254802F0E4
:1002D000EDF90028F7D100F091FB00F0B8FC4FF4E5
:1002E000FA6000F0EEF9FFF775FF25E019480068A5
:1002F00004F00DFCCDE900011BA00CC8009804F02F
:1003000019FC10D200F088FB0421194802F0E8F92A
:10031000642000F0D6F90421154802F0E3F96420C6
:1003200000F0CFF906E000F069FB1248007808B150
:10033000FFF789FFFFF706FFD8E700000400002061
:10034000080000201A0000206666666666660A409D
:10035000000020410C0000204803002000007041F4
:1003600000000020000C0140666666666666FA3F83
:10037000001401403E03002008B54FF4C06002F0B5
:1003800019FE25208DF8000000208DF801008DF861
:10039000020001208DF80300684602F010FE08BD3F
:1003A00000B585B0012144F2040002F096FB4FF441
:1003B0000070ADF8100018208DF8130003208DF8A0
:1003C000120004A9954802F0E1F84FF48060ADF8FE
:1003D000100004208DF8130004A9904802F0D6F80C
:1003E0004FF4E13000900020ADF80400ADF80600B5
:1003F000ADF80800ADF80C000420ADF80A0069461D
:10040000874802F016FC0121854802F09DFC01227C
:1004100040F22551824802F0A3FCFFF7ADFF05B082
:1004200000BD00B585B00121880402F063FB012105
:10043000082002F052FB4FF48060ADF81000182045
:100440008DF8130003208DF8120004A9754802F0FE
:100450009DF84FF40060ADF8100004208DF81300F3
:1004600004A9704802F092F84FF4E13000900020A7
:10047000ADF80400ADF80600ADF80800ADF80C00CA
:100480000C20ADF80A006946674802F0D2FB012152
:10049000654802F059FC05B000BD70B504460D4634
:1004A000E1B2614802F0BFFC00BF5F48008810F075
:1004B000800FFAD0204670BDF0B5034600270E46E7
:1004C0000A2A03D0002030700846F0BD33B930202E
:1004D00006F8010B002030700846F6E7002B03DA1F
:1004E0002D2006F8010B5B4242F210740DE093FBE5
:1004F000F4F505B937B105F1300006F8010B05FB3D
:10050000143301270A2094FBF0F4002CEFDC0020C8
:1005100030700846D9E70FB470B586B004460CA811
:10052000019073E00B9800785C281CD10B98401C5C
:100530000B9000786E2809D072280FD10D2120462B
:1005400002F071FC0B98401C0B900BE00A21204636
:1005500002F069FC0B98401C0B9003E00B98401CC8
:100560000B9000BF4BE00B980078252840D10B98EA
:10057000401C0B900078642818D0732833D1019860
:1005800020C801900BE02978204602F04CFC00BF07
:100590004021204602F0B5FC0028F9D06D1C2878D7
:1005A0000028F0D10B98401C0B9020E0019840C827
:1005B00001900A2202A93046FFF77EFF02AD0BE050
:1005C0002978204602F02FFC00BF4021204602F08F
:1005D00098FC0028F9D06D1C28780028F0D10B98E1
:1005E000401C0B9003E00B98401C0B9000BF06E0F2
:1005F0000B9810F8011B0B90204602F014FC00BF72
:100600004021204602F07DFC0028F9D00B980078AC
:10061000002887D106B070BC5DF814FB00080140CB
:1006200000380140000C014000480040374909688B
:10063000374AB1FBF2F0B0F1807F01D301211CE019
:1006400020F07F41491E4FF0E022516100BF511759
:10065000002905DA0F2109012E4A0B23D15404E0A9
:100660000F2109012C4A5317D15400BF00214FF02C
:10067000E022916107211161002109B100BFFEE76D
:100680004FF0E020006920F001004FF0E021086108
:100690007047224908604FF0E021096941F00101EB
:1006A0004FF0E022116100BF1C4909680029FBD10D
:1006B0004FF0E021096921F001014FF0E0221161C2
:1006C00070474FF47A714143144A11604FF0E021B2
:1006D000096941F001014FF0E022116100BF0F49AB
:1006E00009680029FBD14FF0E021096921F00101DF
:1006F0004FF0E022116170470848006820B10748B8
:100700000068401E05490860704700006003002033
:1007100040420F0018ED00E000E400E0140000206B
:10072000704700BFFEE700BFFEE700BFFEE700BF67
:10073000FEE770477047704710B5FFF7DDFF10BD4B
:1007400010B50121880703F04EFB28B1012188076D
:1007500003F05AFB01F0B5FD10BD10B50121204892
:1007600003F041FB28B101211D4803F04DFB01F0CE
:10077000C5FD10BD10B501211A4803F034FB28B1A6
:100780000121184803F040FB01F0D5FD10BD10B564
:100790000121154803F027FB18B10121124803F08D
:1007A00033FB10BD10B540F22551104802F0BFFBDD
:1007B000A8B120210D4802F0E4FB0D4800880D4946
:1007C0000D4A127888540C48007800F101000A495B
:1007D000087008460078032801DB0020087010BD6F
:1007E0000004004000080040000C004000380140B8
:1007F00004380140000000201800002008B54FF424
:10080000C06002F0D7FB1C208DF8000000208DF89E
:10081000010001208DF802008DF80300684602F007
:10082000CEFB08BD08B54FF4C06002F0C3FB1D202D
:100830008DF8000000208DF8010002208DF80200E4
:1008400001208DF80300684602F0B9FB08BD08B529
:100850004FF4C06002F0AEFB1E208DF800000020B7
:100860008DF8010003208DF8020001208DF80300AF
:10087000684602F0A4FB08BD08B54FF4C06002F062
:1008800099FB32208DF8000000208DF80100042033
:100890008DF8020001208DF80300684602F08FFBFE
:1008A00008BD0EB50121084602F024F94FF0804042
:1008B00002F0FCFB4FF4FA60ADF804004720ADF8FD
:1008C00000000020ADF80600ADF8020069464FF0C8
:1008D000804002F0BFFC0121880703F081FA012269
:1008E0001146900703F002F800214FF0804002F01B
:1008F000D8FF0EBD0EB50121022002F0FBF84E48D4
:1009000002F0D4FB4FF4FA60ADF804004720ADF8D4
:1009100000000020ADF80600ADF802006946464828
:1009200002F098FC0121444803F05AFA01221146D2
:10093000414802F0DBFF00213F4802F0B2FF0EBD4C
:100940000EB50121042002F0D5F83C4802F0AEFBC0
:100950004FF4FA60ADF804004720ADF80000002025
:10096000ADF80600ADF802006946344802F072FCAA
:100970000121324803F034FA012211462F4802F0D7
:10098000B5FF00212D4802F08CFF0EBD0EB50121F0
:10099000082002F0AFF82A4802F088FB4FF6FF70FB
:1009A000ADF804004720ADF800000020ADF80600C7
:1009B000ADF802006946224802F04CFC01212048B3
:1009C00003F00EFA012211461D4802F08FFF0021AC
:1009D0001B4802F066FF0EBD10B5FFF70FFFFFF7D3
:1009E00060FFFFF71FFFFFF785FFFFF730FFFFF7FF
:1009F000A7FFFFF741FFFFF7C9FF10BD10B50121A9
:100A0000880702F04EFF01210B4802F04AFF012146
:100A10000A4802F046FF10BD10B500214FF080409B
:100A200002F03FFF0021044802F03BFF0021034891
:100A300002F037FF10BD0000000400400008004035
:100A4000000C004008B50121084602F039F80121E8
:100A50004FF4027002F041F80220ADF800000020CF
:100A60008DF803006946394801F090FD08BD00B5D6
:100A700091B0374803F0E6FB3648069036480790B9
:100A8000002008900120099000200A900B904FF45C
:100A900080700C9080000D9020200E9000020F902E
:100AA0000020109006A92A4803F06CFC0121284878
:100AB00003F093FC002001908DF8080001208DF8D0
:100AC00009004FF4602003900020049001208DF86D
:100AD000140001A91F484C3803F0C1F94FF44040FD
:100AE00001F063FF0523012209211A484C3803F065
:100AF0004CFA012117484C3803F0E7F90121154859
:100B00004C3803F0D7F913484C3803F0F5F900BF1F
:100B100010484C3803F0F5F90028F9D10D484C384D
:100B200003F0F9F900BF0B484C3803F0F9F900283D
:100B3000F9D1012107484C3803F0FCF911B000BD90
:100B400010B5FFF77FFFFFF792FF10BD00140140C3
:100B5000080002404C2401401A00002008B5012181
:100B60000C2001F0BAFF0121302001F0B6FF0F2068
:100B7000ADF8000010208DF8030003208DF802006E
:100B80006946FF4801F002FDF020ADF8000069461B
:100B9000FB4801F0FBFC4FF41940ADF8000069463A
:100BA000F74801F0F3FC0F20ADF800006946F54866
:100BB00001F0ECFCF020ADF800006946F14801F0CE
:100BC000E5FC4FF47060ADF800006946ED4801F0B7
:100BD000DDFC4FF47040ADF800006946E94801F0D3
:100BE000D5FC0420ADF800006946E74801F0CEFCD2
:100BF0000120ADF8000048208DF8030003208DF897
:100C000002006946E14801F0C1FC08BDE04B1860F4
:100C100059609A607047DE4B186159619A6170475C
:100C2000DB4B186259629A627047D94B186359635B
:100C30009A637047D64B186459649A647047D44BD2
:100C4000186559659A657047D149C865704700B500
:100C50000020D0490870D0490870D0490870D049A8
:100C60000870D0490870D0490870D0490868FFF76B
:100C7000EBFFCE4B9A6859681868FFF7C7FFCB4B5C
:100C80005A691969D868FFF7C6FFC84B1A6AD9694B
:100C90009869FFF7C5FFC54BDA6A996A586AFFF78A
:100CA000C4FFC24B9A6B596B186BFFF7C3FFBF4B66
:100CB0005A6C196CD86BFFF7C2FF00BD00B5B9487C
:100CC0000078052878D2DFE800F0032E5A78A400D7
:100CD000B64B9A685968B64B1868FFF797FFB34B45
:100CE0001A6AD969B24B9869FFF79AFFAF4B9A6BB2
:100CF000596BAF4B186BFFF79DFFAC4B5A691969E5
:100D0000AB4BD868FFF787FFA84BDA6A996AA84B04
:100D1000586AFFF78AFFA54B5A6C196CA44BD86B25
:100D2000FFF78DFF93E0A24B9A6859681868FFF7A8
:100D30006DFF9F4B1A6AD9699869FFF771FF9C4B49
:100D40009A6B596B186BFFF775FF984B5A691969C5
:100D5000974BD868FFF75FFF944BDA6A996A944B18
:100D6000586AFFF762FF914B5A6C196C904BD86B25
:100D7000FFF765FF4FF47A70FFF766FF67E08C4B73
:100D80009A688A4B59688A4B1868FFF73FFF884B6F
:100D90001A6A864BD969864B9869FFF741FF844BE5
:100DA0009A6B824B596B824B186BFFF743FF40F2F3
:100DB000DC50FFF749FF4AE048E07D4B5A6919696A
:100DC000D868FFF728FF7A4BDA6A996A586AFFF702
:100DD0002CFF774B5A6C196CD86BFFF730FF734BB5
:100DE0009A685968724B1868FFF710FF6F4B1A6AC0
:100DF000D9696F4B9869FFF713FF6C4B9A6B596B6E
:100E00006B4B186BFFF716FF4FF4FA60FFF71CFFF0
:100E10001DE0674B5A69654B1969654BD868FFF748
:100E2000FAFE634BDA6A614B996A614B586AFFF7C5
:100E3000FCFE5F4B5A6C5D4B196C5D4BD86BFFF73A
:100E4000FEFE40F2DC50FFF7FFFE00E000BF00BFF7
:100E500000BD00B554480078052878D2DFE800F0DE
:100E6000032E5A78C100514B9A685968514B186843
:100E7000FFF7CCFE4D4B1A6AD9694E4B9869FFF7C4
:100E8000CFFE4A4B9A6B596B4A4B186BFFF7D2FE59
:100E9000464B5A691969474BD868FFF7BCFE434B6C
:100EA000DA6A996A434B586AFFF7BFFE3F4B5A6CA8
:100EB000196C404BD86BFFF7C2FEB0E03D4B9A680F
:100EC00059681868FFF7A2FE3A4B1A6AD9699869FF
:100ED000FFF7A6FE374B9A6B596B186BFFF7AAFE0C
:100EE000324B5A691969334BD868FFF794FE2F4B80
:100EF000DA6A996A2F4B586AFFF797FE2B4B5A6CA8
:100F0000196C2C4BD86BFFF79AFE4FF47A70FFF7F1
:100F10009BFE84E0274B9A68244B5968254B186840
:100F2000FFF774FE234B1A6A204BD969214B98694D
:100F3000FFF776FE1F4B9A6B1C4B596B1D4B186BC2
:100F4000FFF778FE40F2DC50FFF77EFE67E065E0D9
:100F5000184B5A691969D868FFF75DFE154BDA6AB4
:100F6000996A586AFFF761FE124B5A6C196CD86B7C
:100F7000FFF765FE0D4B9A6859680E4B18681BE029
:100F8000000801400010014000140140000C014025
:100F90001C00002041030020400300203F030020EC
:100FA0004203002044030020430300203C010020B2
:100FB000EC020020A4020020FFF728FEFF4B1A6A73
:100FC000D969FF4B9869FFF72BFEFC4B9A6B596B65
:100FD000FB4B186BFFF72EFE4FF4FA60FFF734FE61
:100FE0001DE0F74B5A69F54B1969F54BD868FFF7C7
:100FF00012FEF34BDA6AF14B996AF14B586AFFF72C
:1010000014FEEF4B5A6CED4B196CED4BD86BFFF7A0
:1010100016FE40F2DC50FFF717FE00E000BF00BFF5
:1010200000BD00B5E748007806287ED2DFE800F072
:1010300003193E546A91E44B9A685968DF4B18686B
:10104000FFF7E4FDE04B1A6AD969DC4B9869FFF7BA
:10105000E7FDDD4B9A6B596BD84B186BFFF7EAFD38
:101060008EE0D94B9A6859681868FFF7CFFDD64BC8
:101070001A6AD9699869FFF7D3FDD34B9A6B596BFC
:10108000186BFFF7D7FDCD4B5A691969D868FFF780
:10109000C2FDCA4BDA6A996A586AFFF7C6FDC74BA8
:1010A0005A6C196CD86BFFF7CAFD69E0C34B9A689C
:1010B0005968C54B1868FFF7A9FDC04B1A6AD96972
:1010C000C14B9869FFF7ACFDBC4B9A6B596BBE4B9B
:1010D000186BFFF7AFFD53E0BB4B5A691969B74B6B
:1010E000D868FFF798FDB84BDA6A996AB34B586A2B
:1010F000FFF79BFDB44B5A6C196CB04BD86BFFF7E4
:101100009EFD3DE0B04B5A691969D868FFF783FD31
:10111000AD4BDA6A996A586AFFF787FDAA4B5A6C99
:10112000196CD86BFFF78BFD00E028E0A34B9A68A1
:1011300059681868FFF76AFDA04B1A6AD96998695F
:10114000FFF76EFD9D4B9A6B596B186BFFF772FDA5
:1011500016E09A4B5A6919699B4BD868FFF75BFDFB
:10116000964BDA6A996A984B586AFFF75EFD934B83
:101170005A6C196C944BD86BFFF761FD00E000BF0F
:1011800000BF00BD00B59148007806287ED2DFE898
:1011900000F003193E546A918D4B9A685968874B49
:1011A0001868FFF733FD8A4B1A6AD969834B98692F
:1011B000FFF736FD864B9A6B596B804B186BFFF728
:1011C00039FD8EE0824B9A6859681868FFF71EFD5A
:1011D0007F4B1A6AD9699869FFF722FD7C4B9A6B9D
:1011E000596B186BFFF726FD744B5A691969D8685B
:1011F000FFF711FD714BDA6A996A586AFFF715FD1E
:101200006E4B5A6C196CD86BFFF719FD69E06B4B8C
:101210009A6859686E4B1868FFF7F8FC674B1A6AB2
:10122000D9696B4B9869FFF7FBFC644B9A6B596B60
:10123000674B186BFFF7FEFC53E0654B5A69196961
:101240005E4BD868FFF7E7FC614BDA6A996A5B4B43
:10125000586AFFF7EAFC5E4B5A6C196C574BD86B17
:10126000FFF7EDFC3DE05A4B5A691969D868FFF762
:10127000D2FC574BDA6A996A586AFFF7D6FC544B8E
:101280005A6C196CD86BFFF7DAFC00E028E04B4B86
:101290009A6859681868FFF7B9FC484B1A6AD96907
:1012A0009869FFF7BDFC454B9A6B596B186BFFF7BC
:1012B000C1FC16E0414B5A691969454BD868FFF7E4
:1012C000AAFC3E4BDA6A996A414B586AFFF7ADFCBB
:1012D0003A4B5A6C196C3E4BD86BFFF7B0FC00E0F0
:1012E00000BF00BF00BD00B53A480078062875D29F
:1012F000DFE800F003193E547CA1374B9A68596827
:101300002E4B1868FFF782FC334B1A6AD9692B4BB6
:101310009869FFF785FC304B9A6B596B274B186B1C
:10132000FFF788FC9EE02C4B9A6859681868FFF715
:101330006DFC294B1A6AD9699869FFF771FC264B35
:101340009A6B596B186BFFF775FC1C4B5A6919693E
:10135000D868FFF760FC194BDA6A996A586AFFF798
:1013600064FC164B5A6C196CD86BFFF768FC79E07B
:10137000124B9A685968184B1868FFF747FC0F4BD7
:101380001A6AD969144B9869FFF74AFC0B4B9A6BA0
:10139000596B114B186BFFF74DFC63E00E4B5A690C
:1013A0001969064BD868FFF736FC0B4BDA6A996A65
:1013B000024B586AFFF739FC074B10E03C01002054
:1013C000A4020020420300205C0200204103002010
:1013D0001402002040030020CC01002041E05A6CA0
:1013E000196CF84BD86BFFF72AFC3BE0F64B5A69B7
:1013F0001969D868FFF70FFCF34BDA6A996A586AE3
:10140000FFF713FCF04B5A6C196CD86BFFF717FC05
:10141000EC4B9A6859681868FFF7F8FBE94B1A6AB1
:10142000D9699869FFF7FCFBE64B9A6B596B186B0F
:10143000FFF700FC16E0E34B5A691969E24BD868E4
:10144000FFF7E9FBDF4BDA6A996ADF4B586AFFF76F
:10145000ECFBDC4B5A6C196CDB4BD86BFFF7EFFBEA
:1014600000E000BF00BF00BD00B5D84800780628E6
:101470007ED2DFE800F003193E546A91D44B9A689B
:101480005968D04B1868FFF7C1FBD14B1A6AD9696C
:10149000CC4B9869FFF7C4FBCD4B9A6B596BC94B8A
:1014A000186BFFF7C7FB8EE0C94B9A68596818683C
:1014B000FFF7ACFBC64B1A6AD9699869FFF7B0FB16
:1014C000C34B9A6B596B186BFFF7B4FBBD4B5A6952
:1014D0001969D868FFF79FFBBA4BDA6A996A586AAC
:1014E000FFF7A3FBB74B5A6C196CD86BFFF7A7FB40
:1014F00069E0B44B9A685968B54B1868FFF786FBEA
:10150000B04B1A6AD969B24B9869FFF789FBAD4BAA
:101510009A6B596BAE4B186BFFF78CFB53E0AC4BDF
:101520005A691969A74BD868FFF775FBA84BDA6AA7
:10153000996AA44B586AFFF778FBA54B5A6C196C53
:10154000A04BD86BFFF77BFB3DE0A14B5A691969B3
:10155000D868FFF760FB9E4BDA6A996A586AFFF712
:1015600064FB9B4B5A6C196CD86BFFF768FB00E06F
:1015700028E0944B9A6859681868FFF747FB914B2D
:101580001A6AD9699869FFF74BFB8E4B9A6B596BB6
:10159000186BFFF74FFB16E08A4B5A6919698C4BA1
:1015A000D868FFF738FB874BDA6A996A884B586A24
:1015B000FFF73BFB834B5A6C196C854BD86BFFF7DD
:1015C0003EFB00E000BF00BF00BD00B58148807851
:1015D00041280ED006DC31281AD032281ED03328FC
:1015E00026D11FE0422807D0432808D044281FD125
:1015F0000BE0FFF739FF1EE0FFF775FE1BE0002050
:1016000075490870FFF7BEFD15E0FFF70AFD12E00F
:10161000002071490870FFF71CFC0CE001206E49A6
:10162000087008E000206C490870FFF747FB02E0F3
:10163000FFF70DFB00BF00BF00BD66488078412862
:101640000ED006DC31283BD0322845D0332853D188
:1016500046E0422810D043281AD044284CD123E039
:101660005A480078401C59490870084600780528F7
:1016700001DD0020087040E058480078401C5749C0
:10168000087008460078052801DD0020087034E065
:1016900053480078401C52490870084600780528D5
:1016A00001DD0020087028E04E480078401C4D49BC
:1016B000087008460078052801DD002008701CE04D
:1016C00049480078401C48490870084600780428BA
:1016D00001DD0120087010E001203F4908700CE096
:1016E00042480078401C41490870084600780428A8
:1016F00001DD0120087000E000BF00BF704710B599
:1017000000243B4800683B490968884206D144F000
:101710000104374800683849086000E00024344874
:10172000406834494968884206D144F00204304890
:1017300040683149486000E000242D4880682D4908
:101740008968884206D144F00404294880682A49FF
:10175000886000E000242648C0682649C96888429D
:1017600006D144F008042248C0682349C86000E05C
:1017700000241F4800691F490969884206D144F0C6
:1017800010041B4800691C49086100E00024184847
:10179000406918494969884206D144F02004144838
:1017A00040691549486100E00024114880691149E9
:1017B0008969884222D144F040040D4880690E496D
:1017C00088611CE03C010020CC0100203F03002088
:1017D00084010020000000203E0300204003002080
:1017E0004103002042030020430300204403002063
:1017F0007C0000201C000020DC0000200024FF48AA
:10180000C069FF49C969884206D144F08004FB4899
:10181000C069FC49C86100E00024FF2C03D101200D
:10182000F949087002E00020F7490870F64800788E
:10183000F64909780840F64909780840F5490870E2
:101840000846007818B1FFF7F8FEFFF7BEFE10BD9E
:1018500010B50024E948006AE949096A884206D1BE
:1018600044F00104E548006AE649086200E000240B
:10187000E248406AE249496A884206D144F00204DB
:10188000DE48406ADF49486200E00024DB48806AA5
:10189000DB49896A884206D144F00404D748806A4B
:1018A000D849886200E00024D448C06AD449C96A93
:1018B000884206D144F00804D048C06AD149C862C1
:1018C00000E00024CD48006BCD49096B884206D169
:1018D00044F01004C948006BCA49086300E00024C2
:1018E000C648406BC649496B884206D144F0200483
:1018F000C248406BC349486300E00024BF48806B86
:10190000BF49896B884206D144F04004BB48806BD4
:10191000BC49886300E00024B848C06BB849C96B73
:10192000884206D144F08004B448C06BB549C8630E
:1019300000E00024FF2C03D10120B449087002E02C
:101940000020B2490870B0480078B04909780840D2
:10195000AF4909780840AF4908700846007818B1C7
:10196000FFF76BFEFFF731FE10BD10B50024A34852
:10197000006CA349096C884206D144F001049F48D9
:10198000006CA049086400E000249C48406C9C491D
:10199000496C884206D144F002049848406C994949
:1019A000486400E000249548806C9549896C884221
:1019B00006D144F004049148806C9249886400E0A8
:1019C00000248E48C06C8E49C96C884206D144F010
:1019D00008048A48C06C8B49C86400E0002487482A
:1019E000006D8749096D884206D144F01004834890
:1019F000006D8449086500E000248048406D8049FE
:101A0000496D884206D144F020047C48406D7D49F0
:101A1000486500E000247948806D7949896D8842E5
:101A200006D144F040047548806D7649886500E031
:101A300000247248C06D7249C96D884206D144F0D5
:101A400080046E48C06D6F49C86500E00024FF2C1B
:101A500003D101206E49087002E000206C49087033
:101A60006948007869490978084069490978084057
:101A7000684908700846007818B1FFF7DEFDFFF7E7
:101A8000A4FD10BD5E4909685E4A1268881AC11734
:101A900000EB91718910604A116059494968594AAF
:101AA0005268881AC11700EB917189105A4A516027
:101AB00053498968534A9268881AC11700EB91719B
:101AC0008910554A91604E49C9684E4AD268881AB1
:101AD000C11700EB917189104F4AD16048490969DB
:101AE000484A1269881AC11700EB917189104A4A55
:101AF000116143494969434A5269881AC11700EB89
:101B000091718910444A51613D4989693D4A926900
:101B1000881AC11700EB917189103F4A91613849C9
:101B2000C969384AD269881AC11700EB91718910C6
:101B3000394AD161104600683049096808442F4984
:101B4000086010464068496808442C4948601046BF
:101B5000806889680844294988601046C068C96857
:101B600008442649C86010460069096908442349A9
:101B70000861104640694969084420494861104697
:101B80008069896908441D4988611046C069C9692E
:101B900008441A49C86170471949096A194A126A02
:101BA000881AC11700EB917189101B4A1162144900
:101BB000496A144A526A881AC11700EB9171891058
:101BC000154A51620E49896A0E4A926A881AC117EB
:101BD00000EB91718910104A91620949C96A094A5A
:101BE000D26A881AC11700EB917189100A4AD16232
:101BF0000349096B034A126B881A0FE07C0000202E
:101C00001C000020DC0000203B0300203C030020DF
:101C10003D0300203A03002074030020C11700EBAD
:101C200091718910FC4A1163FC49496BFC4A526B63
:101C3000881AC11700EB91718910F74A5163F7496F
:101C4000896BF74A926B881AC11700EB9171891062
:101C5000F14A9163F149C96BF14AD26B881AC117F5
:101C600000EB91718910EC4AD1631046006AED498E
:101C7000096A0844EB4908621046406A496A084408
:101C8000E84948621046806A896A0844E5498862E2
:101C90001046C06AC96A0844E249C8621046006B2F
:101CA000096B0844DF4908631046406B496B0844E0
:101CB000DC4948631046806B896B0844D9498863C6
:101CC0001046C06BC96B0844D649C8637047D349F6
:101CD000096CD34A126C881AC11700EB91718910F4
:101CE000CD4A1164CD49496CCD4A526C881AC1174E
:101CF00000EB91718910C84A5164C849896CC84A7F
:101D0000926C881AC11700EB91718910C24A9164D4
:101D1000C249C96CC24AD26C881AC11700EB9171D2
:101D20008910BD4AD164BD49096DBD4A126D881A3A
:101D3000C11700EB91718910B74A1165B749496D18
:101D4000B74A526D881AC11700EB91718910B24AD7
:101D50005165B249896DB24A926D881AC11700EB7C
:101D600091718910AC4A9165AC49C96DAC4AD26D8C
:101D7000881AC11700EB91718910A74AD1651046E6
:101D8000006CA849096C0844A64908641046406CD8
:101D9000496C0844A34948641046806C896C084427
:101DA000A04988641046C06CC96C08449D49C86449
:101DB0001046006D096D08449A4908651046406D4B
:101DC000496D0844974948651046806D896D0844FF
:101DD000944988651046C06DC96D08449149C8652D
:101DE000704710B590480078112813D2DFE800F052
:101DF000BC09131F29353F4B55616B77818D97A324
:101E0000AD00884800684FF08041888501218748EF
:101E100000F066FCA8E08348006840F6C411081A88
:101E2000090788850121814800F05CFC9CE07D4821
:101E300040684FF08041888502217C4800F050FCCA
:101E400092E07848406840F6C411081A090788856E
:101E50000221764800F046FC86E0724880684FF028
:101E6000804188850421714800F03AFC7CE06D488F
:101E7000806840F6C411081A0907888504216B4858
:101E800000F030FC70E06748C0684FF08041888502
:101E90000821664800F024FC66E06248C06840F60D
:101EA000C411081A090788850821604800F01AFC47
:101EB0005AE05C4800694FF08041888510215B48FA
:101EC00000F00EFC50E05748006940F6C411081AB3
:101ED000090788851021554800F004FC44E051486A
:101EE00040694FF0804188852021504800F0F8FB80
:101EF0003AE04C48406940F6C411081A0907888541
:101F000020214A4800F0EEFB2EE0464880694FF061
:101F1000804188854021454800F0E2FB24E04148AB
:101F2000806940F6C411081A0907888540213F4896
:101F300000F0D8FB18E03B48C0694FF0804188852D
:101F400080213A4800F0CCFB0EE03648C06940F6EC
:101F5000C411081A090788858021344800F0C2FBA3
:101F600000203149087000BF00BF10BD10B53048D7
:101F70000078112813D2DFE800F0D50913202A37A2
:101F8000415F6976808D97A4AEBBC5002548006A85
:101F9000284908804FF48071244800F0A1FBC1E07B
:101FA0002048006A40F6C411081A224908804FF4FC
:101FB00080711E4800F096FBB4E01A48406A1D4943
:101FC00008804FF40061194800F08AFBAAE0154828
:101FD000406A40F6C411081A164908804FF400619F
:101FE000124800F07FFB9DE00E48806A114908808E
:101FF0004FF480510D4800F073FB93E00948806A6C
:1020000040F6C411081A0B4908804FF48051074864
:1020100000F068FB86E00000740300201C00002034
:10202000DC0000207C000020370300200008014075
:10203000380300202C040040CD48C06ACD490880F8
:102040004FF40041CC4800F04BFB6BE0C848C06A3D
:1020500040F6C411081AC74908804FF40041C64829
:1020600000F040FB5EE0C248006BC24908804FF0C0
:102070000101C24800F034FB54E0BD48006B40F65B
:10208000C411081ABB4908804FF00101BB4800F099
:1020900029FB47E0B648406BB64908804FF0020183
:1020A000B64800F01DFB3DE0B148406B40F6C4115E
:1020B000081AB04908804FF00201B04800F012FB46
:1020C00030E0AB48806BAB4908804FF00401AB486F
:1020D00000F006FB26E0A648806B40F6C411081A03
:1020E000A44908804FF00401A44800F0FBFA19E06D
:1020F0009F48C06B9F4908804FF008019F4800F03F
:10210000EFFA0FE09A48C06B40F6C411081A9949DB
:1021100008804FF00801994800F0E4FA002098493F
:10212000087000BF00BF10BD10B596480078112898
:1021300013D2DFE800F0C40913202A37414E586556
:102140006F7C86939DAAB4008948006C8E490880F4
:102150004FF01001894800F0C3FAB0E08448006CE9
:1021600040F6C411081A884908804FF010018348CE
:1021700000F0B8FAA3E07E48406C834908804FF035
:1021800020017E4800F0ACFA99E07948406C40F6B6
:10219000C411081A7C4908804FF02001774800F0EC
:1021A000A1FA8CE07248806C774908804FF04001BA
:1021B000724800F095FA82E06D48806C40F6C411D8
:1021C000081A714908804FF040016C4800F08AFA03
:1021D00075E06748C06C6C4908804FF08001674823
:1021E00000F07EFA6BE06248C06C40F6C411081A39
:1021F000654908804FF08001604800F073FA5EE0A6
:102200005B48006D604908804FF480715B4800F0C6
:1022100067FA54E05648006D40F6C411081A5A494E
:1022200008804FF48071554800F05CFA47E0504850
:10223000406D554908804FF40071504800F050FA45
:102240003DE04B48406D40F6C411081A4E490880E5
:102250004FF40071494800F045FA30E04448806D81
:10226000494908804FF48061444800F039FA26E07B
:102270003F48806D40F6C411081A434908804FF466
:1022800080613E4800F02EFA19E03948C06D3E49A1
:1022900008804FF40061394800F022FA0FE034481A
:1022A000C06D40F6C411081A374908804FF4006128
:1022B000324800F017FA00203249087000BF00BF12
:1022C00010BD10B531480078401C304908703048C6
:1022D0000078401C2E4908702C480078322190FB71
:1022E000F1F201FB120030B9002028490870FFF715
:1022F000C9FBFFF704FAFFF774FD10BD10B52548C0
:102300000078401C234908701D480078401C1C4977
:10231000087020480078322190FBF1F201FB120096
:1023200030B900201B490870FFF736FCFFF790FA20
:10233000FFF71CFE10BD10B517480078401C164969
:10234000087010480078401C0E4908701248007848
:10235000322190FBF1F201FB120030B900200E494E
:102360000870FFF7B4FCFFF700FBFFF7DDFE10BDC0
:102370007C0000202C0400400008014000100140B7
:1023800038030020390300202C08004034030020CB
:1023900037030020350300203603002008B5012153
:1023A000082000F09AFB4FF48070ADF80000102078
:1023B0008DF8030003208DF802006946324800F0D2
:1023C000E5F84FF40070ADF8000048208DF80300E8
:1023D00069462D4800F0DAF808BD00B587B02B49F2
:1023E000088802F087FBCDE9040129A00CC80498F5
:1023F00002F077FACDE9020127A00CC8029802F09A
:10240000E8FACDE9000102F0BBFB25490860254947
:102410002348006802F0DEFB02D22248204908600F
:1024200000201A49088007B000BD10B54FF4807134
:10243000154800F055F92820FEF72BF94FF480716C
:10244000114800F04FF901211048243801F029FA11
:1024500000BF4FF400710C4800F028F90028F8D0B4
:1024600000200A49088000BF4FF40071064800F0C0
:102470001DF90028F8D100210448243801F011FA90
:10248000FFF7ABFF10BD0000000C0140240C004022
:10249000333333333333FB3F000000000000594037
:1024A000480300200000964306488047064800473E
:1024B000FEE7FEE7FEE7FEE7FEE7FEE7FEE7FEE7F4
:1024C000FEE7FEE7554500083101000810B5044657
:1024D000C748844208D10121042000F018FB0021E4
:1024E000042000F014FB46E0C248844208D10121D8
:1024F000082000F00CFB0021082000F008FB3AE067
:10250000BD48844208D10121102000F000FB0021C9
:10251000102000F0FCFA2EE0B848844208D10121D6
:10252000202000F0F4FA0021202000F0F0FA22E050
:10253000B348844208D10121402000F0E8FA00218C
:10254000402000F0E4FA16E0AE48844208D10121B0
:10255000802000F0DCFA0021802000F0D8FA0AE0A8
:10256000A948844207D10121801500F0D0FA00214A
:10257000A01500F0CCFA10BD10B50121084600F0FE
:10258000C6FA0021012000F0C2FA10BD2DE9F04189
:1025900000220023002400250026002791F803C014
:1025A0000CF00F0291F803C01CF0100F03D091F84B
:1025B00002C04CEA0202B1F800C01CF0FF0F31D09B
:1025C000066800242BE04FF0010C0CFA04F5B1F87A
:1025D00000C00CEA0503AB4220D1A5004FF00F0C60
:1025E0000CFA05F7BE4302FA05FC4CEA060691F820
:1025F00003C0BCF1280F06D14FF0010C0CFA04FC0B
:10260000C0F814C00AE091F803C0BCF1480F05D12E
:102610004FF0010C0CFA04FCC0F810C0641C082C2C
:10262000D1D30660B1F800C0BCF1FF0F34DD4668BD
:1026300000242EE004F1080C4FF0010808FA0CF514
:10264000B1F800C00CEA0503AB4221D1A5004FF060
:102650000F0C0CFA05F7BE4302FA05FC4CEA06061D
:1026600091F803C0BCF1280F05D104F1080C08FA59
:102670000CF8C0F8148091F803C0BCF1480F07D1E2
:1026800004F1080C4FF0010808FA0CF8C0F81080AB
:10269000641C082CCED34660BDE8F0814FF6FF7174
:1026A0000180022181700421C17070470246002020
:1026B00093680B4201D0012000E0002070470146E2
:1026C000886880B2704702460020D3680B4201D070
:1026D000012000E0002070470146C86880B27047C2
:1026E00001617047416170470AB1016100E04161D9
:1026F0007047C16070474FF480320A438261816144
:1027000082618269826970470022404B1A684FF6E5
:1027100080731A4042EA00120A433C4B1A60704729
:102720003B49C8617047F0B5002200230024002512
:1027300000F00046B6F1004F02D1344EF46901E0DA
:10274000324E7468C0F3034582B200F44016B6F509
:10275000401F08D124F070642C4E766826F0706615
:102760002A4F7E6012E000F48016B6F5801F06D175
:10277000032606FA05F39C4344F0706406E0460D18
:10278000360102FA06F6B44344F0706421B1460DF6
:10279000360102FA06F6344300F00046B6F1004F67
:1027A00002D11A4EF46101E0184E7460F0BD30B5EC
:1027B00000228B071C0F0F2303FA04F2134B08337C
:1027C0008C1053F8244094438D1043F825408C100E
:1027D00053F824308C07240F00FA04F423430B4CE5
:1027E00008348D1044F8253030BD0A490860704720
:1027F00000080140000C014000100140001401409D
:1028000000180140001C0140002001400000014070
:1028100000002042DC002042D848006840F001005F
:10282000D649086008464068D5490840D349486001
:1028300008460068D3490840D04908600846006847
:1028400020F4802008600846406820F4FE004860BC
:102850004FF41F0088607047C849096821F480312F
:10286000C64A11601146096821F480211160B0F553
:10287000803F03D0B0F5802F0ED106E0BF49096834
:1028800041F48031BD4A116007E0BC49096841F458
:10289000A021BA4A116000E000BF00BF704710B528
:1028A00001460022002300204A11012A02D1B34C24
:1028B000236806E0022A02D1B04C236A01E0AF4C43
:1028C000636A01F01F02012494401C4201D00120E0
:1028D00000E0002010BD70B500240025002600BFD8
:1028E0003120FFF7DCFF0646641CB4F5A06F01D071
:1028F000002EF5D03120FFF7D2FF08B1012500E00E
:102900000025284670BD00219C4A116821F0F8017D
:1029100041EAC001116070479B490860704700227E
:10292000964B5A6822F47C1240EA01031A43934BF7
:102930005A60704794490866704700218F4A516871
:1029400021F003010143516070478C48406800F05A
:102950000C0070470021894A516821F0F0010143C1
:10296000516070470021854A516821F4E0610143BC
:10297000516070470021814A516821F4605141EA59
:10298000C0015160704729B17C4A527A02437B4BA7
:102990005A7206E0794A527AC343DBB21A40774B47
:1029A0005A7270477949086070470021734A51682C
:1029B00021F440410143516070470021744A117075
:1029C0006E4A82F82010012802D0042808D103E0C2
:1029D00001216F4A117004E005216D4A117000E079
:1029E00000BF00BF70476B49086070476349096AC0
:1029F0000143624A1162704767490860704730B509
:102A000000210022002300245C4D6D6805F00C01BC
:102A100021B1042905D0082923D105E05F4D0560C7
:102A200022E05E4D05601FE0544D6D6805F47012A4
:102A3000524D6D6805F48033022505EB92421BB9B7
:102A4000574D554305600BE04C4D6D6815F4003F44
:102A500003D0534D5543056002E0504D554305608A
:102A600002E04E4D056000BF00BF444D6D6805F0AB
:102A7000F00109094B4D6C5C0568E54045603F4D30
:102A80006D6805F4E061090A464D6C5C4568E540F7
:102A900085603A4D6D6805F46051C90A414D6C5C22
:102AA0004568E540C560354D6D6805F44041890BCA
:102AB0003C4D10356C5CC568B5FBF4F5056130BD67
:102AC00029B12E4A526902432C4B5A6104E02B4A29
:102AD00052698243294B5A61704729B1274A92694A
:102AE0000243264B9A6104E0244A92698243234BB5
:102AF0009A61704729B1214AD26902431F4BDA61BA
:102B000004E01E4AD26982431C4BDA61704729B146
:102B10001A4AD2680243194BDA6004E0174AD268B5
:102B20008243164BDA60704729B1144A1269024396
:102B3000124B1A6104E0114A126982430F4B1A6169
:102B400070471949086070470F49C86470470B49BE
:102B5000C87170470948406A40F080700749486270
:102B6000704701460020054A92680A4201D00120C0
:102B700000E0002070470149887270470010024051
:102B80000000FFF8FFFFF6FE00004242D80042427C
:102B900020100240800442423C04424200127A006B
:102BA00000093D004C0300204004424210B5044699
:102BB000FB48844209D101218803FFF7A8FF0021C7
:102BC0004FF48040FFF7A3FF32E0F648844209D17A
:102BD00001214804FFF7A8FF00214FF40030FFF760
:102BE000A3FF25E0F048844209D101218804FFF7C2
:102BF0009BFF00214FF48020FFF796FF18E0EB4881
:102C0000844209D10121C804FFF78EFF00214FF44F
:102C10000020FFF789FF0BE0E548844208D101213D
:102C20000805FFF781FF00214FF48010FFF77CFFBC
:102C300010BD2DE9F04786B004460D46002600275A
:102C400000BFB146B246A88900B100BFA246268A9D
:102C50004CF6FF700640E88806432682A6894EF6A9
:102C6000F3100640A8882989084369890843064368
:102C7000A681A68A4FF6FF400640A8890643A68291
:102C800001A8FFF7BCFE5446C548824501D1049F08
:102C900000E0039FA08910F4004F08D007EBC700A5
:102CA00000EB071029684900B0FBF1F807E007EBDB
:102CB000C70000EB071029688900B0FBF1F8642019
:102CC000B8FBF0F006013009642101FB1089A089EE
:102CD00010F4004F09D0322101EBC9006421B0FB90
:102CE000F1F000F00700064308E0322101EB091083
:102CF0006421B0FBF1F000F00F000643268106B01E
:102D0000BDE8F0874FF41651016000218180C18039
:102D100001810C21418100218181704710B5002281
:102D2000028A4FF2FF031A400B884C8823438C8899
:102D30002343CC8823431A43028210BD0021018023
:102D400041808180C180704721B1828942F4005264
:102D5000828104E082894DF6FF731A4082817047B8
:102D6000F0B50024002500260023A1F510676A3F76
:102D700000D100BF0346C1F3421401F01F05012733
:102D800007FA05F6012C01D10C3304E0022C01D125
:102D9000103300E014331AB11F6837431F6002E09C
:102DA0001F68B7431F60F0BD10B51AB1838A0B438B
:102DB000838204E0838ACC43A4B22340838210BD83
:102DC000028A4FF6F0731A400282028A0A43028294
:102DD000704782894FF2FF731A40828182890A43C9
:102DE0008281704721B1828942F00202828104E02F
:102DF00082894FF6FD731A4082817047028A4FF62E
:102E0000DF731A400282028A0A430282704721B1AC
:102E1000028A42F48042028204E0028A4BF6FF7387
:102E20001A4002827047C1F308028280704701464F
:102E30008888C0F308007047818941F001018181D1
:102E40007047028BD2B20283028B42EA01220283D4
:102E50007047028B02F47F420283028B0A43028393
:102E6000704721B1828A42F02002828204E0828A85
:102E70004FF6DF731A408282704721B1828A42F096
:102E80001002828204E0828A4FF6EF731A40828237
:102E9000704721B1828A42F00802828204E0828A6D
:102EA0004FF6F7731A408282704721B1828942F44B
:102EB0000042828103E08289C2F30E028281704760
:102EC00021B1828A42F40062828204E0828A4FF257
:102ED000FF731A4082827047828A4FF6FB731A4052
:102EE0008282828A0A438282704721B1828A42F0BA
:102EF0000202828204E0828A4FF6FD731A408282C7
:102F0000704702460020B1F5007F00D100BF138852
:102F10000B4201D0012000E00020704701F4007254
:102F2000B2F5007F00D100BFCA430280704770B580
:102F300002460023002400250020A1F510666A3E09
:102F400000D100BFC1F3421501F01F04012606FAAB
:102F500004F4012D02D19689344006E0022D02D1FD
:102F6000168A344001E0968A34400B12012606FA94
:102F700003F31688334014B10BB1012000E00020A8
:102F800070BD10B500220023A1F510646A3C00D189
:102F900000BF0A1201249440A3B2DC43048010BD98
:102FA000003801400044004000480040004C004010
:102FB0000050004036490143364A1160704770B5F1
:102FC000002100230F22C4784CB3324C246804F44F
:102FD000E064C4F5E0644FEA1421C1F1040322FA6D
:102FE00001F2447804FA03F1847804EA020444EA22
:102FF00001014FEA0111284C0678A155047804F02C
:103000001F054FF0010404FA05F405784FEA651531
:103010004FF0E02606EB8505C5F8004109E004788D
:1030200004F01F040125A5401C4C0678761144F8D5
:10303000265070BD1A4A0A4002431A4B1A60704764
:1030400041B1194A126842EA00024FF0E023C3F886
:10305000102D07E0144A126822EA00024FF0E02324
:10306000C3F8102D7047042808D14FF0E0210969FA
:1030700041F004014FF0E022116107E04FF0E02140
:10308000096921F004014FF0E0221161704700004E
:103090000000FA050CED00E000E400E080E100E053
:1030A00080FFFF1F08ED00E010ED00E010B50446C2
:1030B000FF48844208D10121C014FFF728FD0021F8
:1030C000E014FFF724FDC4E0B4F1804F08D10121E2
:1030D0000846FFF729FD00210120FFF725FDB8E094
:1030E000F448844208D101210220FFF71DFD002190
:1030F0000220FFF719FDACE0EF48844208D101211E
:103100000420FFF711FD00210420FFF70DFDA0E0D2
:10311000EA48844208D101210820FFF705FD00217B
:103120000820FFF701FD94E0E548844208D1012121
:103130001020FFF7F9FC00211020FFF7F5FC88E0D4
:10314000E048844208D101212020FFF7EDFC002156
:103150002020FFF7E9FC7CE0DB48844208D1012114
:103160004014FFF7D4FC00216014FFF7D0FC70E09E
:10317000D648844209D10121C804FFF7C8FC0021C8
:103180004FF40020FFF7C3FC63E0D148844209D12B
:1031900001210805FFF7BBFC00214FF48010FFF769
:1031A000B6FC56E0CB48844209D101214805FFF71F
:1031B000AEFC00214FF40010FFF7A9FC49E0C6481F
:1031C000844208D101214020FFF7AEFC00214020BD
:1031D000FFF7AAFC3DE0C148844208D101218020CC
:1031E000FFF7A2FC00218020FFF79EFC31E0BC48E5
:1031F000844208D101218015FFF796FC0021A0151B
:10320000FFF792FC25E0B748844209D10121080468
:10321000FFF77DFC00214FF48030FFF778FC18E0C9
:10322000B148844209D101214804FFF770FC002114
:103230004FF40030FFF76BFC0BE0AC48844208D140
:1032400001218804FFF763FC00214FF48020FFF781
:103250005EFC10BD00220288954B98420ED09A4B1E
:1032600098420BD0B0F1804F08D0924B984205D0D5
:10327000914B984202D0914B984204D14FF68F73F4
:103280001A404B881A438E4B984207D08D4B984278
:1032900004D04FF6FF431A40CB881A4302808B8834
:1032A00083850B880385824B98420BD0864B9842CE
:1032B00008D08C4B984205D08B4B984202D08B4B58
:1032C000984201D10B7A038601238382704770B53F
:1032D000002200230024058C4FF6FE76354005843D
:1032E000038C8488028B4FF68F752A40B51E2A40C6
:1032F0000D882A43751E2B400D892B434D882B4387
:103300006B4DA8420BD0704DA84208D0754DA84215
:1033100005D0754DA84202D0744DA84213D14FF686
:10332000F7752B404D892B434FF6FB752B408D884D
:103330002B434FF6FF652C404FF6FF552C408D89EF
:103340002C43CD892C4384800283CD8885860384D9
:1033500070BD70B5002200230024058C4FF6EF7677
:1033600035400584038C8488028B48F6FF752A401B
:103370004FF6FF452A400D882D0642EA15424FF6CA
:10338000DF752B400D892D0543EA15434D882D052A
:1033900043EA1543464DA84202D04B4DA8421BD1EB
:1033A0004FF67F752B404D892D0543EA15434FF6A7
:1033B000BF752B408D882D0543EA15434FF6FF3529
:1033C0002C404FF2FF752C408D89AD0444EA154422
:1033D000CD89AD0444EA154484800283CD880587F5
:1033E000038470BD70B5002200230024058C4FF6C5
:1033F000FF6635400584038C8488828B4FF68F7579
:103400002A404FF6FC752A400D882A434FF6FF5597
:103410002B400D892D0643EA15434D882D0643EABE
:103420001543234DA84202D0274DA8421BD14FF28D
:10343000FF752B404D892D0643EA15434FF6FF35A6
:103440002B408D882D0643EA15434EF6FF752C4020
:103450004DF6FF752C408D892D0544EA1544CD8924
:103460002D0544EA154484808283CD8885870384B2
:1034700070BD70B5002200230024058C4EF6FF7647
:1034800035400584038C8488828B48F6FF752A407A
:103490004FF6FF452A400D882D0642EA15424DF6AB
:1034A000FF752B400D892D0743EA15434D881FE01A
:1034B000002C01400004004000080040000C0040C7
:1034C000001000400014004000340140004C014056
:1034D000005001400054014000180040001C004012
:1034E00000200040004001400044014000480140ED
:1034F0002D0743EA1543F84DA84202D0F74DA842E4
:1035000006D14BF6FF752C408D89AD0544EA154474
:1035100084808283CD88A0F84050038470BD828B64
:103520004FF2FF331A408283828B0B0642EA13422A
:1035300082837047F0B5002400250026078C4EF6E4
:10354000FF7C07EA0C070784848B058C0F073E0C71
:1035500040F6FF473C40170644EA17441F0744EA79
:103560001744DD4FB8420ED0DC4FB8420BD0B0F15B
:10357000804F08D0DA4FB84205D0DA4FB84202D0B7
:10358000D94FB84206D14DF6FF773D4046F48057FB
:103590003D4305E047F6FF573D4041F480573D432A
:1035A00084830584F0BD828B4FF6F3731A408283C7
:1035B000828B0A4382837047F0B5002400250026E1
:1035C000078C4FF6FF6C07EA0C070784848B058C89
:1035D0000F063E0C4FF60C773C401F0542EA17479A
:1035E0003C43BD4FB8420ED0BC4FB8420BD0B0F1F7
:1035F000804F08D0BA4FB84205D0BA4FB84202D077
:10360000B94FB84206D14FF6FF573D4046F4807798
:103610003D4305E04FF2FF573D4041F480773D4385
:1036200084830584F0BD028B4FF2FF331A4002837E
:10363000028B0B0642EA134202837047F0B5002466
:1036400000250026078C4FF6EF7C07EA0C0707845D
:10365000048B058C0F053E0C40F6FF473C401F07CE
:1036600044EA1744170644EA17449B4FB8420ED069
:103670009A4FB8420BD0B0F1804F08D0984FB84263
:1036800005D0984FB84202D0974FB84206D14FF6B6
:10369000DF773D4046F010073D4305E04FF65F778A
:1036A0003D4041F010073D4304830584F0BD028B8B
:1036B0004FF6F3731A400283028B0A43028370476A
:1036C000F0B500240025068C4FF6FE773E400684B8
:1036D000048B058C4FF60C7634401E0542EA1646E4
:1036E00034437D4EB0420ED07C4EB0420BD0B0F190
:1036F000804F08D07A4EB04205D07A4EB04202D008
:10370000794EB04206D14FF6FD76354041F00106C4
:10371000354305E04FF6F576354041F00106354377
:1037200004830584F0BD70B504460D466A488442A2
:103730000ED06A4884420BD0B4F1804F08D068485C
:10374000844205D06748844202D06748844200D151
:1037500000E000BF288850B92B89AA8869882046D4
:10376000FFF7AEFFE9882046FFF7A1FF25E0288894
:1037700004280AD12B89AA8869882046FFF75EFFB2
:10378000E9882046FFF74FFF17E0288808280AD16C
:103790002B89AA8869882046FFF70EFFE988204612
:1037A000FFF701FF09E02B89AA8869882046FFF707
:1037B000C1FEE9882046FFF7B2FE70BD2DE9F04159
:1037C00004460D4600260127688808B9022600E055
:1037D0000026A888012801D1022700E001272888B7
:1037E000A0B92B89AA8869882046FFF769FFE98874
:1037F0002046FFF75CFF2B893A4631462046FFF70B
:103800001DFFE9882046FFF70EFF13E02B89AA88E9
:1038100069882046FFF712FFE9882046FFF703FF7B
:103820002B893A4631462046FFF74AFFE988204671
:10383000FFF73DFFBDE8F0810A884B881A438B886B
:103840001A43CB881A430B891A434B891A438B8935
:103850001A43A0F8442070474FF6FF718180002181
:103860000180C18041800172704700210180418048
:103870008180C180018141818181C18170470021A6
:1038800001804180012181800021C1800181704738
:103890000021018041808180C1800181418181813D
:1038A000704721B1028842F00102028004E00288E0
:1038B0004FF6FE731A400280704731B1B0F84420D1
:1038C00042F40042A0F8442005E0B0F84420C2F3DE
:1038D0000E02A0F844207047002C01400034014043
:1038E0000004004000080040000C004010B51AB170
:1038F00083890B43838104E08389CC43A4B22340B2
:10390000838110BD8182704741EA0203A0F84830EC
:10391000704710B51AB183890B43838104E0838912
:10392000CC43A4B22340838110BD01894FF6F872C5
:10393000114001817047002202894FF68F731A40AF
:103940000A430281704730B504460D462946204699
:10395000FFF7F1FF208940F00700208130BD2DE9FD
:10396000F04104460D4616461F46602D06D13B46E3
:10397000012231462046FFF761FE05E03B46012269
:1039800031462046FFF79CFE29462046FFF7D3FF2D
:10399000208940F007002081BDE8F08130B5002487
:1039A0000489E4B21D0642EA15450D432C43048107
:1039B00030BD2DE9F04104460D46164698460027D5
:1039C0004346324629462046FFF7E8FF27894FF64F
:1039D000F870074047F007074FF68F70074047F031
:1039E00070072781BDE8F081F0B504460D46164604
:1039F0001F463B46324629462046FFF7CFFF208927
:103A000040F480402081F0BD018582827047002211
:103A100002884FF68F731A400A4302807047F0B550
:103A20000024002500260489058B068C4FF6F877C4
:103A30003C400C434FF6FC473D4040F201173D43EC
:103A40004FF6DD773E401F0542EA17473E430481AB
:103A500005830684F0BD0022028B4FF68F731A4057
:103A60000A43028370470022028B48F6FF731A4014
:103A70000B0642EA1342028370470022828B4FF604
:103A80008F731A400A43828370470022828B48F664
:103A9000FF731A400B0642EA13428283704721B13A
:103AA000028842F08002028004E002884FF67F73B1
:103AB0001A400280704721B1828842F0040282805D
:103AC00004E082884FF6FB731A408280704721B170
:103AD000828842F00802828004E082884FF6F77301
:103AE0001A408280704721B1828842F001028280B0
:103AF00004E082884FF6FE731A40828070470022ED
:103B0000028B4FF6F7731A400A4302837047002274
:103B1000028B4FF2FF731A400B0642EA13420283F4
:103B200070470022828B4FF6F7731A400A43828354
:103B300070470022828B4FF2FF731A400B0642EA55
:103B40001342828370470022028B4FF6FB731A40A8
:103B50000A43028370470022028B4FF6FF331A405C
:103B60000B0642EA1342028370470022828B4FF613
:103B7000FB731A400A43828370470022828B4FF600
:103B8000FF331A400B0642EA134282837047002239
:103B9000028B4FF67F731A400A430283704700225C
:103BA000028BC2F30E020B0642EA134202837047F5
:103BB0000022828B4FF67F731A400A43828370473C
:103BC0000022828BC2F30E020B0642EA134282836A
:103BD00070470022028C4FF6FD731A400A4302849C
:103BE00070470022028C4FF6F7731A400A43028492
:103BF00070470022028C4FF6DF731A400B0542EA31
:103C00001342028470470022028C4FF67F731A40E1
:103C10000B0542EA1342028470470022028C4FF6E1
:103C2000FF531A400B0642EA1342028470470022F7
:103C3000028C4FF2FF731A400B0642EA13420284D1
:103C400070470022028C4DF6FF731A400B0742EAC0
:103C500013420284704730B5002301248C40A3B284
:103C6000048CDD43ADB22C400484048C02FA01F5CF
:103C7000ADB22C43048430BD30B5002304248C4005
:103C8000A3B2048CDD43ADB22C400484048C02FA50
:103C900001F5ADB22C43048430BD70B5002300247F
:103CA00003461846183301258D40ACB2058CE64317
:103CB000B6B23540058409B1082909D103EB610387
:103CC0001D6825F070051D601D6815431D600CE022
:103CD0000D1FADB203EB65031D6825F4E0451D60C3
:103CE0001D68160645EA16451D6070BD21B10288A3
:103CF00042F00202028004E002884FF6FD731A408F
:103D00000280704721B1028842F00402028004E080
:103D100002884FF6FB731A400280704721B18288F7
:103D200042F08002828004E082884FF67F731A405E
:103D30008280704702884FF6F7731A40028002882B
:103D40000A430280704782884FF68F731A40828040
:103D500082880A438280704702894FF6F8731A40BE
:103D6000028102890A430281704702894FF67F73FC
:103D70001A40028102890A43028170478184704798
:103D800081857047818670470187704781877047BA
:103D9000A0F84010704702884FF6FF431A40028097
:103DA00002880A43028070470146888E70470146A8
:103DB000088F70470146888F70470146B1F8400070
:103DC00070470146888C70470146088D704702464F
:103DD0000020138A0B4201D0012000E00020704730
:103DE000CA430282704730B50246002000230024F7
:103DF000158A05EA0103958905EA010413B10CB19E
:103E0000012000E0002030BDCA430282704700005C
:103E100010B50446FE48844208D101214015FEF742
:103E200076FE00216015FEF772FE17E0F948844225
:103E300008D101210015FEF76AFE00212015FEF7CA
:103E400066FE0BE0F448844208D10121C803FEF766
:103E50005EFE00214FF40040FEF759FE10BD30B564
:103E6000002200234268ED4C22400D790C6844EAA0
:103E70000524224342608268E94C2240D1E9025481
:103E80002C434D7944EA450422438260C26A22F4FD
:103E900070020C7C641EE4B2234342EA0352C26205
:103EA00030BD00210160017141718160C16001215B
:103EB0000174704721B1826842F00102826003E020
:103EC000826822F001028260704721B1826842F468
:103ED0008072826003E0826822F4807282607047A0
:103EE00010B50023CBB21AB144681C43446002E011
:103EF00044689C43446010BD816841F008018160C2
:103F00007047014600208A6812F0080F01D0012096
:103F100000E000207047816841F004018160704733
:103F2000014600208A6812F0040F01D0012000E051
:103F30000020704721B1826842F4A002826003E051
:103F4000826822F4A00282607047014600208A68DD
:103F500012F4800F01D0012000E00020704710B55E
:103F600000220023426822F460424B1E42EA4332A0
:103F7000426010BD21B1426842F40062426003E039
:103F8000426822F4006242607047F0B500240025C8
:103F9000092911DDC468A1F10A0606EB46070726C8
:103FA00006FA07F5AC43A1F10A0606EB460603FA4A
:103FB00006F52C43C4600CE0046901EB41070726B9
:103FC00006FA07F5AC4301EB410603FA06F52C436C
:103FD0000461072A0FDA446B561E06EB86071F267C
:103FE00006FA07F5AC43561E06EB860601FA06F5FF
:103FF0002C43446322E00D2A0FDA046BD61F06EB34
:1040000086071F2606FA07F5AC43D61F06EB860681
:1040100001FA06F52C43046310E0C46AA2F10D0610
:1040200006EB86071F2606FA07F5AC43A2F10D063C
:1040300006EB860601FA06F52C43C462F0BD21B1F9
:10404000826842F48012826003E0826822F4801267
:10405000826070470146C86C80B270477148006842
:10406000704721B1426842F48062426003E04268D6
:1040700022F480624260704721B1426842F480526B
:10408000426003E0426822F480524260704700229E
:10409000826822F4E0420A438260704721B182685C
:1040A00042F40042826003E0826822F400428260AF
:1040B000704721B1826842F40212826003E0826894
:1040C00022F4021282607047014600208A6812F4CE
:1040D000001F01D0012000E000207047F0B500244F
:1040E00000250026092911DDC468A1F10A0707EBA4
:1040F000470C072707FA0CF5AC43A1F10A0707EBB9
:10410000470703FA07F52C43C4600CE0046901EB90
:10411000410C072707FA0CF5AC4301EB410703FA02
:1041200007F52C430461846BC4F30156D71C06F1D8
:10413000010CA7EB0C0707EB870C1F2707FA0CF500
:10414000AC43D71C06F1010CA7EB0C0707EB870764
:1041500001FA07F52C438463F0BD10B5002200235B
:10416000826B22F440124B1E42EA0352826310BD5E
:1041700010B50023034618460B441A6010BD0246D2
:10418000002313461A4601F128000344186880B240
:10419000704700224268244B1A400A43426070472D
:1041A0004162826270470022426822F01F020A4385
:1041B0004260704738B11D49096841F400011C4A4A
:1041C000C2F8081406E01949096821F40001184AE8
:1041D000C2F8081470470246002013680B4201D051
:1041E000012000E000207047CA430260704770B5AC
:1041F00002460020002300240B125568CEB205EAC7
:10420000060415681D4215D0A4B1012013E000007A
:104210000024014000280140003C0140FFFEF0FF67
:10422000FDF7F1FF4C240140FFFD3FFF0824014052
:1042300000200140002070BD00220A12D343036019
:104240007047000001684FF6FE72114001600021C6
:10425000016041608160C1608749884208D1864918
:104260000839496841F00F01834A083A516088E0F3
:1042700081491431884208D17F490839496841F0A1
:10428000F0017D4A083A51607BE07B492831884241
:1042900008D179490839496841F47061764A083A89
:1042A00051606EE074493C31884208D17249083946
:1042B000496841F47041704A083A516061E06E49C2
:1042C0005031884208D16C490839496841F470215D
:1042D000694A083A516054E067496431884208D11C
:1042E00065490839496841F47001634A083A5160E8
:1042F00047E061497831884208D15F490839496807
:1043000041F070615C4A083A51603AE05B4988428A
:1043100008D1A0F10401096841F00F01584AC2F820
:1043200004142EE055491431884207D155490968D3
:1043300041F0F001524AC2F8041422E04F492831FA
:10434000884207D14F49096841F470614C4AC2F86C
:10435000041416E049493C31884207D149490968AB
:1043600041F47041464AC2F804140AE0434950310E
:10437000884206D14349096841F47021404AC2F895
:104380000414704710B50022026847F6F0739A4390
:104390000C6A8B6823430C6923434C6923438C6963
:1043A0002343CC6923434C6A23438C6A23431A4337
:1043B0000260CB6843600B6883604B68C36010BDCC
:1043C0000021016041608160C160016141618161E2
:1043D000C161016241628162704721B1026842F0AD
:1043E0000102026004E002684FF6FE731A400260A8
:1043F00070471AB103680B43036002E003688B4304
:1044000003607047416070470146486880B270475A
:1044100002460020002112F0805F02D01A4B19687A
:1044200001E0174B1968114201D0012000E0002083
:10443000704710F0805F02D01249086001E0104917
:104440004860704702460020002112F0805F02D0D1
:104450000D4B196801E00A4B1968114201D0012087
:1044600000E00020704710F0805F02D0054908602E
:1044700001E0034948607047080002400804024018
:104480000000024004040240000402400020002119
:10449000674A126842F48032654B1A6000BF644A72
:1044A000126802F40031401C11B9B0F5A06FF6D1CA
:1044B0005F4A126812F4003F01D0012100E00021A0
:1044C000012942D15B4A126842F01002594B1A602E
:1044D0001A46126822F003021A601A46126842F065
:1044E00002021A60524A5268514B5A601A46526888
:1044F0005A601A46526842F480625A601A465268FC
:1045000022F47C125A601A46526842F4E8125A6049
:104510001A46126842F080721A6000BF444A12685C
:1045200012F0007FFAD0424A526822F00302404B58
:104530005A601A46526842F002025A6000BF3C4A72
:10454000526802F00C02082AF9D1704710B5FFF743
:104550009DFF10BD10B53648006840F00100344999
:1045600008600846406834490840314948600846B8
:104570000068324908402E4908600846006820F467
:10458000802008600846406820F4FE0048604FF430
:104590001F008860FFF7DAFF4FF0006028490860CD
:1045A00010BD10B5002000210022214B5B6803F0F4
:1045B0000C0020B1042806D0082828D107E0214BA0
:1045C000214C236027E01F4B1F4C236023E0184B36
:1045D0005B6803F47011164B5B6803F480320223AE
:1045E00003EB914122B9194B4B43174C23600DE06B
:1045F0000F4B5B6813F4003F04D0144B4B43124C39
:10460000236003E00F4B4B430F4C236003E00D4B43
:104610000D4C236000BF00BF054B5B68C3F3031361
:104620000B4CE05C084B1B68C340074C236010BD7B
:1046300000100240002002400000FFF8FFFFF6FEDD
:1046400008ED00E000127A006003002000093D0040
:1046500064030020F0B480EA0102D20F4300B3EB00
:10466000410F02D20346084619464B0042D0C30D03
:10467000DDB2C1F3C7542C1B202C35DAC1F316016F
:1046800041F4000502B16D42C4F1200605FA06F1BD
:1046900025412844B3EBD05F23D0C2B1012CA0EB5D
:1046A000C35009DCF0BC4FF0004202EAC35200F5EF
:1046B0000000DBB200F0C2BA400000F1807000EBF5
:1046C000C350A0F1807040EAD170490009E0490868
:1046D00041EAC071A0EBC35000F50000400800EBB8
:1046E000C350F0BC00F0A1BA5142012303EB4101D9
:1046F000801AF6E7F0BC704781F00041AAE780F02D
:104700000040A7E780EA010202F0004330B430F035
:10471000004221F0004015D0A0B1C0F3C754C2F34D
:10472000C755C2F31601C0F316002D1B41F400015A
:1047300040F400007D35814201D36D1C00E049004A
:10474000002D02DA30BC002070474FF40002002434
:10475000814201D3091A144352084FEA4101F7D1AB
:1047600051B1814202D14FF0004105E002D24FF039
:10477000010101E06FF0010104EBC55030BC1844A9
:1047800000F053BA2DE9FF4D81EA030086B04FEAED
:10479000D07806981D460F4623F0004321F00041D3
:1047A000801A1646994105D2394606982F46069634
:1047B00006460D46002325F00041594086EA0300D5
:1047C000084304D1069839460AB0BDE8F08D3C0D87
:1047D000C4F30A00C5F30A510590401A049040281A
:1047E0006BDAC5F3130040F4801AB8F1000F02D061
:1047F00076426AEB4A0A04985146C0F140023046BC
:1048000000F0F2F983460D4651463046049A00F016
:10481000FBF9069A86184F4184EA175050EAE47073
:1048200042D0B8F1000F2CD004984FF000020128BC
:104830004FEA045312DCB01A67EB03014FF0004358
:1048400003EA0454059B001CCDE90143009241F5A5
:1048500080112B465A4600F038FAB5E7B01A67EBDC
:104860000301001C41F5801100184941001CA3F50B
:10487000001341EB030740EAD5761BEB0B0B6D41B0
:1048800012E06D084FEA3B0B4FEA0454301E67EB11
:104890000401001C41F58011490845EAC6754FEA3C
:1048A0003000061C41EB04072B465A463946304679
:1048B0000AB0BDE8F04D00F0EFB94FEA4800012220
:1048C000141A0023069A63EBE073B2EB080067EB5F
:1048D000E8712246ECE783F0004353E781F00041A2
:1048E00050E72DE9F04D834681EA030023F00044B0
:1048F00088B000F00040002321F00045079085EAD1
:1049000003018BEA03009246084305D084EA0301C1
:104910008AEA0300084304D10020014608B0BDE83C
:10492000F08DC4F30A50C5F31301C5F30A521318EE
:10493000ABFB0A2541F48018C4F3130141F4801441
:10494000A3F2F33308FB0A5104930BFB04134FEA61
:104950009B204FEA9A2140EA885041EA8451A0FB0B
:1049600001654FEA982707FB01514FEA942C00FBA1
:104970000C1739053005151A41EA163163EB0101B0
:1049800005914FEA9B604FEA9A6140EA881041EA3C
:104990008411A0FB0140321E804667EB0403280D02
:1049A0000599C5F3130540EA0130861843EB115011
:1049B000001948F10001049B2A030C3B46EA1554F8
:1049C0000293079D0023CDE90035234600F07DF9D1
:1049D000A4E72DE9FF0F054681EA0302002082B01B
:1049E00002F0004223F00046CDE90002034621F028
:1049F000004484EA030168404FF4801A084325D03C
:104A00000023049886EA0301584008431ED0C4F3EB
:104A10000A51C4F3130242F48014C6F3130242F4A1
:104A20008012C6F30A5013460592081A049A00F23F
:104A3000FD3BA81AD04674EB030102D30BF1010B26
:104A400001E06D196441BBF1000F05DA06B0BDE865
:104A5000F00F00200146704700264746B046B24698
:104A600011E0DDE90423A81A74EB030106D3AD1AA3
:104A700064EB030448EA06084AEA070A7F084FEA9B
:104A800036066D196441002387EA030186EA0300B4
:104A90000843E6D184EA030185EA0300084315D000
:104AA000DDE9042384EA030185EA0200084303D117
:104AB00000254FF0004409E0A81A74EB030102D26C
:104AC0000125002402E06FF001056C10DDE90023F0
:104AD00018F100004AEB0B518018594123462A4631
:104AE00006B0BDE8F00F00F0D7B8962300221146BB
:104AF00000F0A4B80EB5002140F233430091CDE997
:104B000001130B460A4600F0E0F803B000BD00F0C8
:104B1000004230F0004001D101467047C30DC0F3A0
:104B2000160003F56073C108400742EA03521143BF
:104B3000704700002DE9F04107460D46002001F0C6
:104B400000414140404016461C464FF00048084393
:104B500002D17F4268EB0505002004F0004141408E
:104B60004040084302D1764268EB040438462946A7
:104B7000324623468B4208BF8242BDE8F0810000E6
:104B8000F0B40023054601F0004621F0004484EA19
:104B900003015840084306D0200DA0F56070C4F30F
:104BA0001301002802DCF0BC002070476A0F42EAC3
:104BB000C1023244E900F0BC02EBC05000F035B84D
:104BC000002801DBC0F10040002901DBC1F10041F8
:104BD00081427047002801DBC0F10040002901DB61
:104BE000C1F1004188427047202A04DB0023203AAB
:104BF00000FA02F106E000FA02F39140C2F120024D
:104C0000D040014318467047202A06DB203A41FA7B
:104C100002F0C21742EAE1717047D040C2F12003AE
:104C200001FA03F31843114170470029A8BF7047E8
:104C3000401C490008BF20F00100704710B4B0FAD2
:104C400080FC00FA0CF050EA010404BF10BC70476D
:104C500049B1CCF1200421FA04F411FA0CF118BF87
:104C6000012121430843A3EB0C01CB1D4FEA006156
:104C70004FEA102042BF002010BC704700EBC35029
:104C800010440029A4BF10BC7047401C490008BF55
:104C900020F0010010BC7047F0B51F460446002309
:104CA0000D46D01A164677EB03010BDA641C45F16A
:104CB0000005B01947EB070159405840084301D19E
:104CC00024F0010420462946F0BD2DE9F04D92461E
:104CD0009B4611B1B1FA81F602E0B0FA80F62036B7
:104CE0003246FFF781FF04460D46002340EA0A00E2
:104CF00041EA0B0159405840084303D12046294658
:104D0000BDE8F08D00238BEA03018AEA0300084323
:104D100019D0C6F140025946504600F045F8074602
:104D20008846324659465046FFF75EFF00235940F9
:104D30005840084300D001204FEAE071384348EA68
:104D4000010104430D430A984FEA4457A0EB0603C0
:104D50004FEAD4200A334FF0000640EA45504FEAAC
:104D6000D52102D500200146CAE7001C41EB0351C2
:104D7000DDE90823801859413B463246BDE8F04D35
:104D80008AE70000064C074D06E0E06840F00103AA
:104D900094E8070098471034AC42F6D3FBF7CCF9FF
:104DA000444E0008644E0008202A04DB203A21FA11
:104DB00002F000217047D040C2F1200301FA03F352
:104DC0001843D140704770B501EB020410F8015B45
:104DD00015F0070301D110F8013B2A1106D110F894
:104DE000012B03E010F8016B01F8016B5B1EF9D198
:104DF0002B0706D4002301E001F8013B521EFBD52E
:104E00000CE010F8013B02F10202A1EB030303E006
:104E100013F8015B01F8015B521EF9D5A142D5D30D
:104E2000002070BD02E008C8121F08C1002AFAD194
:104E300070477047002001E001C1121F002AFBD11A
:104E400070470000644E000800000020740300005A
:104E5000C64D0008484F0008740300206404000099
:104E6000344E0008011C0BFDDC05040921042368F5
:104E7000062330071A780C1A900C1AE0041A500C0A
:104E80001AA4081A6C18290C1A140423B0041A184E
:104E9000141A640C1119041A400C1A3C081A8818C8
:104EA0005A7C441AF80429381A58081AA8041AF027
:104EB0002029444B3408401A4C0423E8031AEC0818
:104EC0001A9C041A38041AA0241A74081AC0182943
:104ED000506948292C6948293C6948295469481A6D
:104EE0004414694829B8092A480922900922D80996
:104EF0002290291C29481A68141A783029481A184F
:104F00000C29302948295C290C6948291C69482941
:104F100014E94829906948299069482990694829E5
:104F20002069485AC8A429481A500C011C2D0102B6
:104F3000030404100906070809020406081BA24A14
:084F400036891C29180000004D
:0400000508000131BD
:00000001FF
